:020000040800F2
:10000000000002209D060008090600080B060008F3
:100010000D0600080F060008110600080000000089
:1000200000000000000000000000000013060008AF
:100030001506000800000000170600081906000851
:10004000ED060008ED060008ED060008ED060008C4
:10005000ED060008ED060008ED060008ED060008B4
:10006000ED060008ED060008ED060008ED060008A4
:10007000ED060008ED060008ED060008ED06000894
:10008000ED060008ED060008ED060008ED06000884
:10009000ED060008ED060008ED060008ED06000874
:1000A000ED060008ED060008ED060008ED06000864
:1000B000ED060008ED060008ED060008ED06000854
:1000C000ED060008ED060008ED060008ED06000844
:1000D000ED060008ED060008ED060008ED06000834
:1000E000ED060008ED060008ED060008ED06000824
:1000F000ED060008ED060008ED060008ED06000814
:10010000ED060008ED060008ED060008ED06000803
:10011000ED060008ED060008ED060008ED060008F3
:10012000ED060008ED060008ED060008ED060008E3
:10013000ED060008ED060008ED060008ED060008D3
:10014000ED060008ED060008ED0600081D06000893
:10015000ED060008ED060008ED060008ED060008B3
:10016000ED060008ED060008ED060008ED060008A3
:10017000ED060008ED060008ED060008000000008E
:04018000ED06000880
:1001840010B5054C237833B9044B13B10448AFF3CD
:1001940000800123237010BD4001002000000000F6
:1001A400083A000808B5034B1BB103490348AFF3F1
:1001B400008008BD0000000044010020083A000847
:1001C40053B94AB9002908BF00281CBF4FF0FF31BA
:1001D4004FF0FF3000F074B9ADF1080C6DE904CEB6
:1001E40000F006F8DDF804E0DDE9022304B070470E
:1001F4002DE9F0478C460446089E002B4BD18A42D9
:10020400154667D9B2FA82F24AB1C2F1200701FA5F
:1002140002F320FA07F7954047EA030C94404FEAAB
:10022400154EBCFBFEF71FFA85F80EFB17C307FB40
:1002340008F9210C41EA0343994509D9EB1807F160
:10024400FF3180F01C81994540F21981023F2B4413
:10025400A3EB0903B3FBFEF00EFB103300FB08F124
:10026400A4B244EA0344A14209D92C1900F1FF3392
:1002740080F00781A14240F2048102382C4440EA14
:1002840007400027641A1EB10023D440C6E9004386
:100294003946BDE8F0878B4209D9002E00F0EC8086
:1002A4000027C6E9000138463946BDE8F087B3FAAD
:1002B40083F7002F48D18B4202D3824200F2FB80A5
:1002C400841A61EB030301209C46002EE0D0C6E9AA
:1002D400004CDDE702B9FFDEB2FA82F2002A40F0F8
:1002E4008F800127491B4FEA15481FFA85F9B1FB96
:1002F400F8FE08FB1E1109FB0EF04FEA144C4CEA01
:100304000143984207D9EB180EF1FF3102D298420B
:1003140000F2CD808E461B1AB3FBF8F008FB1033B5
:1003240009FB00F9A4B244EA0344A14507D92C19F6
:1003340000F1FF3302D2A14500F2B6801846A4EBC7
:10034400090440EA0E409EE7C7F12005BB4022FAAB
:1003540005FC4CEA030C21FA05F44FEA1C4EB4FBED
:10036400FEF91FFA8CF80EFB194420FA05F3B94084
:1003740009FB08FA19430B0C43EA0444A24502FAA8
:1003840007F200FA07F30BD91CEB040409F1FF3060
:1003940080F08880A24540F28580A9F10209644476
:1003A400A4EB0A04B4FBFEF00EFB104400FB08FAB5
:1003B40089B241EA0444A24508D91CEB040400F1C3
:1003C400FF316BD2A24569D90238644440EA09403E
:1003D400A0FB0289A4EB0A044C454146CE4654D303
:1003E40051D0002E69D05A1A64EB0E0404FA05F5B4
:1003F40022FA07F3FC401D43C6E90054002747E7EF
:100404009540C2F1200321FA03F04FEA1548B0FBEE
:10041400F8F71FFA85F908FB170024FA03F3914053
:1004240007FB09FC0B43190C41EA00418C4504FA13
:1004340002F407D9691807F1FF3031D28C452FD95E
:10044400023F2944A1EB0C01B1FBF8F008FB101C9E
:1004540000FB09FE99B241EA0C418E4507D969189F
:1004640000F1FF3318D28E4516D902382944A1EB86
:100474000E0140EA07473AE73746304608E70F4699
:10048400E6E61846FBE64345ABD2B8EB020169EB5E
:100494000C0201389646A4E71846E8E7084695E7B3
:1004A4000746CFE781467BE702382C4447E7AEF1A5
:1004B400020E2B442FE7384607E73746E8E600BF2D
:1004C400704700BF1C2210B592B00DEB0200002152
:1004D40003F0D8F91422002101A803F0D3F9012272
:1004E40010230D21CDE90923C3230224CDE90E13E2
:1004F400052306A8119306940C94109401F086F930
:100504000F230020CDE901344FF4A053CDE90303B8
:100514004FF48053032101A8059301F047FB12B067
:1005240010BD000030B589B000F01AF9FFF7CAFF1A
:10053400102200244FF4005500210DEB020003F0BB
:10054400A1F91B4B01941A6B08A942F004021A6327
:100554001A6B184802F004020192019A02941A6B71
:1005640042F001021A631B6B41F8145D03F00103AE
:100574000293029B00F054FB29460E4800F034FC21
:10058400012802D102F0C4FEFEE70B4B1D6801F006
:10059400BFF800F0ABF8094B094A1C605C609C6032
:1005A400084B93601B6883F30888A847ECE700BFF7
:1005B40000380240000802400440000810E000E057
:1005C40000ED00E00040000870470000002182B008
:1005D4000B4B00915A6C42F480425A645A6C02F4F8
:1005E40080420092009A01911A6C42F080521A647F
:1005F4001B6C03F080530193019B02B0704700BF52
:10060400003802407047FEE7FEE7FEE7FEE770476A
:100614007047704700F0BEB8014800F0A7BC00BFA7
:100624005007002008B50A4B0246196809B9094960
:1006340019606946186802448A4206D903F0E8F84A
:100644000C2303604FF0FF3008BD1A60FCE700BFC5
:100654005C010020580B002000210C4B1A6842F06A
:1006640001021A6099601A6822F0847222F48032BE
:100674001A60074A5A601A6822F480221A604FF0FE
:100684000062D960034B9A60704700BF0038024093
:100694001030002400ED00E0DFF834D0002103E046
:1006A4000C4B5B58435004310B480C4B42189A4294
:1006B400F6D30B4A02E0002342F8043B094B9A426A
:1006C400F9D3FFF7C9FF03F0A9F8FFF72BFF704731
:1006D40000000220D03A0008000000204001002061
:1006E40040010020540B0020FEE7704710B54FF086
:1006F400FF320024074B1A621C625A625C621A6160
:100704001C615A615C619A619C61FFF7EEFF2046AF
:1007140010BD00BF0038024038B50E4B05461878AE
:100724004FF47A73B3FBF0F30B4A1068B0FBF3F0A9
:1007340000F0AAF8044658B90F2D09D802462946F4
:100744004FF0FF3000F05EF82046044B1D6038BDCA
:100754000120FCE704000020000000200800002025
:1007640008B50B4B03201A6842F400721A601A6829
:1007740042F480621A601A6842F480721A6000F0CF
:100784002FF80020FFF7C8FFFFF720FF002008BD67
:10079400003C0240034A044B11681B780B4413606D
:1007A400704700BF6802002004000020014B186855
:1007B400704700BF6802002037B50190FFF7F6FFCD
:1007C4000546019C631C1EBF044B1B78E418FFF70D
:1007D400EDFF401BA042FAD303B030BD040000205B
:1007E400074A0002D36800F4E06023F4E0631B04CA
:1007F4001B0C43F0BF6343F400330343D3607047DF
:1008040000ED00E0174B70B5DC684FF0FF36C4F321
:100814000224C4F10705042D04F1040328BF0425B0
:10082400062B98BF002406FA05F388BF033C21EA8F
:100834000303A34006FA04F422EA0404002843EA6A
:100844000403A8BF00F160404FEA0313B8BF064A8F
:10085400DBB2ABBF00F5614000F00F0080F800335D
:10086400135470BD00ED00E014ED00E0002808DB37
:100874000123420900F01F0003FA00F0014B43F882
:100884002200704700E100E00138B0F1807F0AD215
:10089400F021064B064A586082F8231000200722F4
:1008A40098601A6070470120704700BF10E000E0B4
:1008B40000ED00E0094910B50C6924F440740C61A2
:1008C4000C6944F440740C610C6944F001040C613B
:1008D4000260BFF36F8F436010BD00BF003C024055
:1008E400074B1A6922F440721A611A6942F40072C1
:1008F4001A611A6942F001021A610160704700BF6F
:10090400003C0240074B1A6922F440721A611A69CA
:1009140042F480721A611A6942F001021A6101807C
:10092400704700BF003C02401A4BDA68D20606D575
:100934001949CA6942F00802CA611022DA60DA6809
:10094400900606D51449CA6942F00402CA612022FD
:10095400DA60104BDA68510606D50F49CA6942F0CD
:100964000202CA614022DA60DA68120606D50A4930
:10097400CA6942F00102CA618022DA60054AD3687A
:100984009B0706D50449CB6943F01003CB610223CE
:10099400D3607047003C02406C020020064B1A6989
:1009A400002ABFBF054A5A6002F188325A60BABFB2
:1009B4001869C00F00207047003C024023016745BE
:1009C400034A0020136943F000431361704700BFDA
:1009D400003C02400022F8B5114B0546DA61FFF7EE
:1009E400E5FE104C07462646E368DA030CD4E368B8
:1009F400DB0744BF0123E360F06810F0F20007D086
:100A0400FFF792FF012003E0691CEDD00DB903202C
:100A1400F8BDFFF7CBFEC01BA842E5D9F7E700BF3E
:100A24006C020020003C02402DE9F0411F4D984625
:100A34002B7E0746012B0E46144635D001234CF27B
:100A440050302B76FFF7C6FFB0B9CFB9184BE4B2DC
:100A54001A6922F440721A611A691A611A6942F019
:100A640001021A6134704CF25030FFF7B3FF104AA0
:100A7400136923F00103136100232B76BDE8F08191
:100A8400012F04D1A1B23046FFF73CFFEBE7022F60
:100A940004D121463046FFF723FFE4E722464346CC
:100AA4003046FFF707FFDEE70220E7E76C0200208D
:100AB400003C0240074B1A6922F440721A611A6919
:100AC40042F004021A611A6942F4803242EA0020B8
:100AD40018617047003C024039B1012921D0022934
:100AE4000CBF4FF400714FF440710F4B1A6922F49C
:100AF40040721A611A69114319611A6922F0F802E5
:100B04001A61F82292FAA2F2B2FA82F219699040BA
:100B140041F00202104318611A6942F480321A61EA
:100B240070474FF48071E0E7003C0240144B1A68B0
:100B340091050FD51A6822F400721A601A6842F4FB
:100B440000621A601A6822F400621A601A6842F499
:100B540000721A600A4B1A6852050FD51A6822F4FB
:100B640080621A601A6842F480521A601A6822F489
:100B740080521A601A6842F480621A60704700BF9B
:100B8400003C02402DE9F843234E0446337E884658
:100B9400012B3FD001234CF250303376FFF71AFF7C
:100BA4000546A8B94FF0FF33C8F800302368012B7D
:100BB40013D1207CFFF77EFF4CF25030FFF70AFF81
:100BC4000546164A136923F004031361FFF7AEFFC9
:100BD400002333762846BDE8F883A768DFF83C9005
:100BE400D4E902231344BB42F0D9217C3846FFF7F1
:100BF40073FF4CF25030FFF7EDFED9F8103023F0BC
:100C0400FA03C9F8103018B1C8F800700546DDE7DA
:100C14000137E5E70225DDE76C020020003C0240D5
:100C240000232DE9F74FD1F80080DFF8B8916B4A23
:100C340038FA03F402D103B0BDE8F08F4FF0010C91
:100C44000CFA03FC1CEA080600F0B68003254C6885
:100C54004FEA430E24F0100A0AF1FF3705FA0EF5A5
:100C6400012F6FEA050511D8876807EA050BCF68DD
:100C740007FA0EF747EA0B078760476827EA0C0C68
:100C8400C4F300179F4047EA0C074760C768BAF1EE
:100C9400020F07EA050C8F6807FA0EF747EA0C07FC
:100CA400C76016D14FF00F0C4FEAD30A00EB8A0A43
:100CB40003F0070BDAF820704FEA8B0B0CFA0BFCED
:100CC40027EA0C0C0F6907FA0BF747EA0C07CAF876
:100CD400207007683D4004F0030707FA0EFE4EEA51
:100CE40005050560E50067D54FF0000B4FF00F0CCC
:100CF400CDF804B0D9F8447003F0030E47F48047EC
:100D0400C9F84470D9F84470354D07F48047019709
:100D1400019F23F0030707F1804707F59C37D7F8B5
:100D240008A04FEA8E0E0CFA0EFCA8422AEA0C0C1C
:100D340044D005F58065A84242D005F58065A842F7
:100D440040D005F58065A8423ED005F58065A842EF
:100D54003CD005F58065A8423AD005F58065A842E7
:100D640038D005F58065A84236D005F58065A842DF
:100D740014BF0925082505FA0EF545EA0C05BD60E2
:100D8400F743156814F4803F0CBF3D4035431560AC
:100D9400556814F4003F0CBF3D40354355609568D9
:100DA40014F4801F0CBF3D4035439560D568A40200
:100DB40054BF3D403543D560013339E75D46DAE73A
:100DC4000125D8E70225D6E70325D4E70425D2E791
:100DD4000525D0E70625CEE70725CCE7003C0140F2
:100DE40000000240003802400369194214BF012088
:100DF40000207047F0B504468BB060B390F8BD3363
:100E0400056803F0FF021BB980F8BC2302F0B2FBB3
:100E1400032384F8BD33EB6B25466E4613F48073CD
:100E240055F8100B08BF236101F030F80FCD0FC641
:100E34000FCD0FC695E80300254686E80300271D5D
:100E440097E80E0055F8100B00F06CFF064620B131
:100E5400022384F8BD33012550E00146206801F0E7
:100E64001BF830464FF0010E1C260146D4F804C08E
:100E7400C2B2944500F101001CD800231C26194677
:100E8400D8B2844503F1010322D80FCD6E460FC6B4
:100E94000FCD0FC695E8030086E8030097E80E001F
:100EA400206801F03BF80123054600B3022284F8D0
:100EB400BD23D0E706FB024383F83DE083F83C20E2
:100EC400A3F8422083F83F10C3E911111965CFE755
:100ED40006FB004282F8FD1182F8FC0182F8FF1142
:100EE400C2F80412C2F80812C2F81012C8E784F853
:100EF400380084F8BD33206801F01CFB28460BB091
:100F0400F0BD90F8BC3310B5012B04460CD001237E
:100F140080F8BC33006801F001FB206800F0B0FFEA
:100F2400002084F8BC0310BD0220FCE790F8BC3319
:100F340070B5012B044616D0012680F8BC63006806
:100F440000F0A4FF206801F0B9FA054628B1002397
:100F5400354684F8BC33284670BD206801F0EAFAAF
:100F640084F8BC53F7E70225F5E700002DE9F04FBC
:100F7400D0F800B087B00446584601F016FB029042
:100F8400002840F01A81206801F0E0FA002800F0FF
:100F94001481206801F0DAFA860748BF22682068C5
:100FA40042BF536903F00203536101F0CFFA050312
:100FB40000F10681206801F0C9FA40030BD52068CE
:100FC40001F0D0FA2546814600260BF51068B9F1E8
:100FD400000F40F0BE81206801F0B8FA00280DDA55
:100FE400DBF80438204623F00103CBF8043802F080
:100FF40049FB2268536903F000435361206801F000
:10100400A5FA00050BD5DBF80838D90702D5204628
:1010140002F020FB2268536903F4006353612068E3
:1010240001F094FAC20435D50BF500656B68102104
:1010340023F001036B60206800F046FF4FF67F3118
:1010440060680BF51063029A904240F01882EB69D5
:1010540043F00113EB61236B002B00F02382D5F8DE
:10106400843043F00B03C5F884306B6C43F00B03FE
:101074006B64DBF8003804F5717223F4FE63CBF87B
:101084000038217C206801F0AFFA2268536903F428
:1010940080535361206801F059FA830416D52068FF
:1010A40001F087FA206800F0FDFFE060256800F099
:1010B4001BFE227B0146284600F06EFE204602F00D
:1010C400B6FA2268536903F400535361206801F0AF
:1010D4003DFAC7062BD52268936923F01003936168
:1010E400DBF82050C5F34343022B05F00F0640F014
:1010F400E48147F6F0731D4214D01C2303FB06461B
:10110400C5F30A152A46D6F80812584601F074F9B0
:10111400D6F808322B44C6F80832D6F814321D44E7
:10112400C6F814522268936943F01003936120684F
:1011340001F00CFA060707D5204602F074FA22687B
:10114400536903F008035361206801F0FFF9C502F5
:1011540008D50021204602F09DFA2268536903F461
:1011640080135361206801F0F1F9800208D5002151
:10117400204602F08BFA2268536903F4001353618A
:10118400206801F0E3F9410007D5204602F086FA11
:101194002268536903F080435361206801F0D6F953
:1011A40042070AD523685D686B0702D5204602F022
:1011B40079FA226853682B43536007B0BDE8F08F77
:1011C400206801F0C7F900258046DFF810930BF57D
:1011D4003066B8F1000F3FF4EDAE18F0010F00F0E7
:1011E400B480EBB219462068039301F0C3F910F000
:1011F400010F0746039B53D001214FEA451A06EB22
:101204000A02916022682169106C02F530629244EE
:101214000129DAF8082058D1110714D5484505D911
:10122400100444BF4FF40043CAF80830204602F0CB
:10123400E3F904F571720121206801F0D5F908235E
:10124400CAF808302CE0910601D52023F8E712F003
:10125400280F25D1484504D9100402D54FF4004382
:10126400EEE71C2202FB0542DAF81010D2F8040261
:10127400C1F31201411AC2F81412D2F80812084438
:10128400C2F808021946204602F0BCF945B9D4F860
:1012940010322BB904F571720121206801F0A4F910
:1012A400380737D5236820691A6C4FEA451A03F5C5
:1012B400306353440128996816D14A4517D9090463
:1012C40044BF4FF40041996011E08349884206D13C
:1012D4001104C3D4920644BF2022CAF80820194638
:1012E400204602F08FF9DBE77B488242E7D02046B4
:1012F400039202F081F9039A4A4507D92169012929
:1013040004D104F57172206801F06EF90823B24427
:10131400CAF80830F80642BF102206EB45139A605B
:10132400B9060BD52169012904D104F5717220682D
:1013340001F05AF9202206EB45139A60BA0442BF21
:101344004FF4005206EB45139A6001354FEA5808F2
:101354003FE719F0010F72D05FFA86FA5146206810
:1013640001F011F9C307074624D50120DBF834380E
:1013740006F00F0200FA02F223EA02030246CBF857
:10138400343808EB4613986023695146834202BF00
:10139400D5E911239B18AB64204602F03CF921697E
:1013A400012907D136B9236D23B904F57172206878
:1013B40001F01AF9380742BF082208EB46139A6075
:1013C400F90642BF102208EB46139A607A0642BF20
:1013D400402208EB46139A60BB0742BF022208EB87
:1013E40046139A603F062AD5D5E914329A4226D884
:1013F4009B1A6A6C2168934228BF134603339B08E7
:10140400049301F5106303EB461303910593059BC5
:1014140004999A69D5E9147392B28A4214D29F420C
:101424000DD80121039B06F00F0203F5006AD3F8DF
:10143400343801FA02F223EA0203CAF834300136DE
:101444004FEA59091C35C2E59F42EAD9002FE8D07A
:10145400FF1A6B6C52469F4228BF1F46FB1C9B0819
:101464000493237C03980093A96CBBB200F0D8FECC
:10147400AB6C3B44AB646B6D1F446F65C7E799600D
:101484001A68203322F4001243F8202CC3F8E81120
:10149400D3F8E02122F40012C3F8E021029A0132C9
:1014A4000292D0E56B6943F4005343F02B036B6164
:1014B4002B6943F00B032B61DBE5062B7FF432AE83
:1014C400082204F57171584600F096FF1C23C5F3F9
:1014D4000A1503FB064620E60A31544F0A30544FDE
:1014E40090F8BC2310B5012A04460BD0012280F8E1
:1014F400BC2384F83810006801F000F8002084F858
:10150400BC0310BD0220FCE770B504461C2001F0AA
:101514000F05684311F0800F14BF00F13C0100F582
:10152400FE7104EB000617BF01200020091986F89C
:101534003D0004BF091986F8FD018A604A780D70E0
:10154400CB7002B1CD80022B04BF00230B7194F841
:10155400BC33012B09D00123206884F8BC3300F08C
:10156400ACFD002084F8BC0370BD0220FCE738B554
:101574001C2401F00F056C4304F5FE710444C4F807
:1015840010320023C4F80822C4F8143284F8FD3160
:1015940084F8FC5103690144012B08BFC4F80C22F0
:1015A4000068DAB21DB900F0C7FD002038BD00F0B4
:1015B4004BFEFAE738B51C2401F00F056C4304F127
:1015C4003C0104442365002363650123A26484F879
:1015D4003D3084F83C5003690144012B08BFE264A8
:1015E4000068DAB21DB900F0A7FD002038BD00F094
:1015F4002BFEFAE738B5436801F00F059D42044617
:101604002CD811F0800F4FF01C031ED001226B4325
:1016140003F13C010344014483F83D2001230D7090
:101624008B7094F8BC239A421AD084F8BC33206897
:1016340000F0F0FE2DB904F57172217C206800F0F1
:10164400D3FF002084F8BC0338BD00224B4303F5CC
:10165400FE710344014483F8FD21DFE70120F3E731
:101664000220F1E738B5436801F00F029A420446BC
:1016740025D81C23534311F0800F14BF03F13C0100
:1016840003F5FE7118444FF0000515BF0123002334
:101694000919091914BF80F83D3080F8FD318D70A7
:1016A4000A7094F8BC33012B0BD00123206884F812
:1016B400BC3300F0DAFE284684F8BC5338BD012060
:1016C400FCE70220FAE7006870B51204446A19B90D
:1016D40022438262002070BD836A4D1E04EB1344D2
:1016E40000235E1CDBB29D4205D83F31224300EB50
:1016F40081004260EEE7403300EB83035B6804EB58
:1017040013443346EDE70368002059627047000034
:1017140070B5FFF74BF80546364C236843F00103D8
:1017240023602368990745D5236841F2883643F03E
:1017340080032360FFF73AF800230546A3602D4C8D
:10174400A36813F00C0F3CD1FFF730F8054623686B
:1017540023F450232360274C23689A0337D4FFF7DC
:1017640025F80546236823F080732360214C236801
:101774009B0132D4204B6360FFF718F805462368B9
:1017840023F0806323601B4C236813F000632AD189
:101794001A4AC4F88420E3604FF0FF33184A6367A1
:1017A400184B1A60184B1868FEF7B6FF003018BFC4
:1017B400012005E0FEF7FAFF401B0228B1D90320FF
:1017C40070BDFEF7F3FF401BB042B9D9F7E7FEF74F
:1017D400EDFF401B6428BFD9F1E7FEF7E7FF401B8C
:1017E4006428C4D9EBE7FEF7E1FF401B0228CBD9FC
:1017F400E5E700BF0038024010300004003000204C
:101804000024F40000000020080000202DE9F3412A
:10181400044608B901203BE00368DD0710D42368BF
:10182400980745D423681A0700F1918023685B0761
:1018340000F1AF80A069002840F00181002027E07A
:10184400AA4B9A6802F00C02042A07D09A6802F0A4
:101854000C02082A0AD15B68590207D5A34B1B68FE
:101864009A03DCD56368002BD9D1D3E7A04B227946
:101874001A7063687BB1FEF799FF06469B4D2B688F
:101884009B03CCD4FEF792FF801B6428F7D9032076
:1018940002B0BDE8F081FEF789FF0646934D2B6840
:1018A4009F03BCD5FEF782FF801B6428F7D9EEE7BF
:1018B4008E4B9A6812F00C0F07D09A6802F00C0253
:1018C400082A16D15B685E0213D4884B1A68950700
:1018D40002D5E268012A9DD11868F82292FAA2F290
:1018E400B2FA82F122698A4020F0F8010A431A60B0
:1018F40098E7E2687F4BDAB101221A60FEF756FFDF
:1019040006467A4D2B6898070CD52968F82393FA74
:10191400A3F3B3FA83F22369934021F0F80213434B
:101924002B607FE7FEF742FF801B0228EAD9AEE76F
:101934001A60FEF73BFF06466C4D2B6899077FF54E
:1019440071AFFEF733FF801B0228F6D99FE7626967
:10195400694B7AB101221A60FEF728FF0646634DEF
:101964006B6F9F073FF562AFFEF720FF801B0228D5
:10197400F6D98CE71A60FEF719FF06465B4D6B6FCC
:1019840098077FF553AFFEF711FF801B0228F6D9A5
:101994007DE7564B1A6C12F0805226D10126019233
:1019A4001A6C42F080521A641B6C03F0805301934A
:1019B400019B524D2B6843F480732B602B68D9052F
:1019C40015D54F4B227A1A70A36803BBFEF7EEFEBF
:1019D40041F288380746454D2B6F980720D5FEF70E
:1019E400E5FEC01B4045F7D951E70026E1E72B6827
:1019F40043F480732B60FEF7D9FE07462B68DA05A3
:101A0400DFD4FEF7D3FEC01B0228F7D93FE7FEF769
:101A1400CDFE41F288380746344D2B6F9B0708D51D
:101A2400002E3FF407AF314A136C23F08053136444
:101A340000E7FEF7BBFEC01B4045EED927E72B4D60
:101A4400AB6803F00C03082B5ED000232D4E022854
:101A540033603ED1FEF7AAFE07462B68990132D4C3
:101A640047F6C07797FAA7F74FF44032B7FA87F7EB
:101A740092FAA2F24FF07061B2FA82F091FAA1F1F7
:101A8400D4E90732B1FA81F11343626A02FA07F723
:101A9400A26A3B435208013A82401343E26A134C60
:101AA40002FA01F10B436B6001233360FEF77EFE03
:101AB400054623689A013FF5C1AEFEF777FE401B49
:101AC4006428F6D9E3E6FEF771FEC01B6428C4D986
:101AD400DDE6FEF76BFE04462B689B017FF5AEAE98
:101AE400FEF764FE001B6428F6D9D0E600380240F5
:101AF4000238024000004742800E47420070004016
:101B0400703802406000474201283FF4C1AE686863
:101B1400E36900F480029A427FF47CAE226A00F00A
:101B24003F0393427FF476AE626AC0F38813934214
:101B34007FF470AEA26A00F4403393427FF46AAE3D
:101B4400E36A00F07060C01A18BF0120A0E600BF6D
:101B5400134908B58B6803F00C03042B03D0082B3E
:101B640003D0104800E0104808BD4A684B68496833
:101B740013F4800314BF0C480A48C1F3881118BF3A
:101B8400002302F03F02A1FB0001FEF719FB044B06
:101B94005B68C3F3014301335B00B0FBF3F0E3E79D
:101BA400003802400024F40040787D012DE9F04122
:101BB4000D46044610B90120BDE8F081454B1A6872
:101BC40002F00F028A422ED321688F0733D4C8074C
:101BD40046D4404B1A6802F00F02AA4269D8226820
:101BE40051076FD4130707D53B4A2169936823F43F
:101BF400604343EAC1039360FFF7AAFF364BF02228
:101C04009B6892FAA2F2B2FA82F203F0F003D34094
:101C1400324AD35CD840324B1860324B1868FEF716
:101C24007BFD0020C8E7CAB21A701B6803F00F03DB
:101C34008B42C0D1C8E7284B11F0040F1EBF9A682D
:101C440042F4E0529A600E0742BF9A6842F460423E
:101C54009A609A68A06822F0F00202439A60B6E79C
:101C640061681D4B01291A681BD112F4003FA2D0F0
:101C74009A6841F2883822F003020A439A60FEF718
:101C840095FD0746144EB368626803F00C03B3EB8A
:101C9400820F9ED0FEF78AFDC01B4045F3D9032076
:101CA4008AE7022902D112F0007FE0E712F0020F66
:101CB400DDE7EAB21A701B6803F00F03AB427FF44E
:101CC4007AAF8CE70449E0688B6823F4E05303435C
:101CD4008B6087E7003C024000380240203A00084D
:101CE4000000002008000020014B1868704700BF66
:101CF400000000200A4B013B0FD00269002AFADAE7
:101D04000369074A43F001030361013A05D00369FB
:101D140013F00103F9D1184670470320704700BF40
:101D2400410D030084B038B505AD85E80E000A9B6B
:101D34000446012B25D1836B23F480338363C3686A
:101D440023F4840323F04003C360C36823F44013E3
:101D5400C360119B012B02BFC36843F48013C360AB
:101D6400FFF7C8FF089B012B07D1A36843F00603C4
:101D7400A360A36843F02003A360BDE8384004B027
:101D84007047C36843F04003C360FFF7B3FFA36B1E
:101D940043F48033A363E5E7022A58D12E4B2F4A3C
:101DA4000B44934247D92E4B2E4A0B44934244D9B9
:101DB400A1F574032C4AA3F5105393423FD9A1F122
:101DC400837302F5C332A3F5E743A032934238D9B3
:101DD400264B274A0B44934235D9264B02F59222CF
:101DE4000B4402F5787293422FD9234B02F5C32298
:101DF4000B4402F52072934229D9A1F1B77302F57D
:101E0400B712A3F5585302F55872934221D91B4BCC
:101E140002F512220B4402F5F862934294BF0723A1
:101E24000623C26822F47052C260C26842EA832365
:101E3400C360002070470F23F3E70E23F1E70D235F
:101E4400EFE70C23EDE70B23EBE70A23E9E709238C
:101E5400E7E70823E5E700BF405327FFFF340C0002
:101E6400401E1BFF3F420F007F4F120060B6E5FE8D
:101E74005FE3160000D3CEFEC05BB3FEE05459FE10
:101E8400836843F00103836000207047836823F074
:101E9400010383600020704708B5C368012923F05B
:101EA400C043C36008D1C36843F00053C360322009
:101EB400FEF782FC002008BD19B9C36843F08043D3
:101EC400F4E70120F7E70000890141F02001064A08
:101ED4000161013A05D0036913F02003F9D11846D2
:101EE40070470320704700BF410D03001023064ACA
:101EF4000361013A05D0036913F01003F9D11846C0
:101F040070470320704700BF410D0300D0F800382C
:101F14001943C0F8001800207047000084B02DE970
:101F2400F047044609A880E80E00002388461946B5
:101F34000C9F139E03F14002013304EB82020F2B2A
:101F44005160F7D1A36B002E72D143F40013A36345
:101F5400A36B23F40023A363A36B23F48023A36361
:101F64000023C4F8003ED4F8003804F50065C4F832
:101F740000380E9B012B64D10B9900295FD12046B8
:101F8400FFF7C4FF10212046FFF79EFF01462046BD
:101F9400FFF7ACFF002856D1081C18BF012000230E
:101FA4004FF0904C19464FF0006E4FF67F392B617D
:101FB40004F510626B61EB61434546D100214FF09B
:101FC400904E8C464FF000684FF67F3904F530622E
:101FD4008B424DD12B69012F23F480732B6107D1E0
:101FE4002E4B2B632B6B43F4803343F003032B639F
:101FF4000023A3616FF0804363611FB9A36943F0B9
:102004001003A361A269264B1343A3610F9B1BB169
:10201400A36943F00803A361012E01BFA36943F040
:10202400804343F00403A361BDE8F04704B0704764
:1020340023F40013A363A36B43F400238FE719462F
:102044009DE703219BE70120A9E7D2F800A0BAF19C
:10205400000F0BDA3BB9C2F800E011610133C2F89A
:1020640008902032A8E7C2F800C0F6E71160F4E750
:10207400D2F800A0BAF1000F0CDA41B9C2F800801E
:10208400C2F810C00131C2F808902032A0E7C2F8AB
:1020940000E0F5E7C2F800C0F2E700BF00018000ED
:1020A40000383C80D0F8083813F0060004D013F050
:1020B400020F14BF02200F20704730B501240D78A1
:1020C40000F5006205F00F039C404B7800EB4510CF
:1020D400012BD36918D11C43D461D0F800391A04F8
:1020E40010D48B68C978C3F30A0343F0805343F4D4
:1020F4000043D0F8002943EA814343EA855313435C
:10210400C0F80039002030BD43EA0444D461D0F85B
:10211400003B1B04F6D48B68C978C3F30A0343F06D
:102124008053D0F8002B43F4004343EA8143134324
:10213400C0F8003BE6E700004B78F0B50C78012BC3
:1021440000EB44144D69344E344F44D104F510630C
:10215400B5B91D692E401E611D6945F400251D6138
:102164001D692F401F61012A21D10A6902B15A61F8
:10217400D4F8003943F00443C4F800390020F0BD1A
:10218400D3F810C00CEA07071F611F693E401E61A7
:102194008E68AE421D6938BF4E6145F400251D614D
:1021A4004D691E69C5F3120535431D61DBE7D4F89B
:1021B400003943F00443C4F800394B69002BDDD0E7
:1021C4000B78D0F8344803F00F02012393402343E3
:1021D400C0F83438D2E704F5306318693840186120
:1021E400186930401861886805B148611D69C0F3F9
:1021F400120045F400251D611D69012A40EA05000D
:10220400186102D1CA6802B15A61D4F8003B43F0A4
:102214000443C4F8003BB1E7FFFF07E00000F8FF08
:1022240010B59DF808404CB9033300EB02309B080D
:1022340000F5805001EB8303994201D1002010BDC9
:1022440051F8042B0260F7E7F7B54D780C78012DAF
:1022540000EB44144B69CE78DFF894C1DFF894E1C5
:102264007DD104F510652F693BBB07EA0C072F618C
:102274002F6947F400272F612F6907EA0E072F61A2
:10228400012A42D10B6903B16B61012E0CD1D0F844
:10229400083813F4807FD4F800390CBF43F000539E
:1022A40043F08053C4F80039D4F8003943F00443B0
:1022B400C4F80039002003B0F0BD07EA0E072F610F
:1022C4002F69012E07EA0C07D1F808C02F610CEB27
:1022D400030707F1FF37B7FBFCFC444FD5F810E0C8
:1022E40007EACC4747EA0E072F61D5F810C0C3F3BD
:1022F400120747EA0C072F61C2D12F6927F0C047A4
:102304002F612F6947F00057B9E7D4F80059012E1F
:1023140045F00445C4F800590CD0002BCAD00B7802
:10232400D0F8344803F00F02012393402343C0F84C
:102334003438BFE7D0F808589BB215F4807FD4F83E
:1023440000590CBF45F0005545F08055C4F80059BC
:102354000C780092C9682246FFF762FFAAE704F5E9
:1023640030673D6905EA0E053D613D6905EA0C05E6
:102374003D618D681BBB3B69C5F312051D433D617F
:102384003B6943F40023012A3B6102D1CB6803B1CA
:102394007B61012E0CD1D0F8083813F4807FD4F877
:1023A400003B0CBF43F0005343F08053C4F8003BA0
:1023B400D4F8003B43F00443C4F8003B7AE72B44D1
:1023C400013BB3FBF5F3DFF824C0D7F810E00CEAC7
:1023D400C34C9BB26B434CEA0E0CC7F810C0D7F841
:1023E40010C0C3F3120343EA0C03CCE70000F81F48
:1023F400FFFF07E00000F8FF0332920801EB8202BE
:1024040000F58050914201D108467047036841F8B5
:10241400043BF7E74A780B78012A00EB431012D10A
:10242400D0F80029002A06DB2BB1D0F8003923F0BC
:102434008043C0F80039D0F8003943F40013C0F8E1
:10244400003900207047D0F8002B002A06DB2BB19E
:10245400D0F8003B23F08043C0F8003BD0F8003BA9
:1024640043F40013C0F8003BEBE70B784A7800EB29
:102474004310CB78012AA3F10203DBB20FD1D0F8C9
:102484000029012B22F40012C0F8002905D8D0F845
:10249400003943F08053C0F8003900207047D0F869
:1024A400002B012B22F40012C0F8002B9EBFD0F8A1
:1024B400003B43F08053C0F8003BEEE710B54FF605
:1024C4007F32044600F5106300F52E619A60C3F86C
:1024D400082220338B42F9D100222046C4F8102868
:1024E400C4F81428C4F81C28FFF700FD28B92046B6
:1024F400BDE810401021FFF7E7BC10BDD0F800384C
:10250400090123F4FE63C0F80038D0F8003801F460
:10251400FE611943C0F800180020704708B5D0F8D0
:10252400043823F00203C0F804380320FEF744F90A
:10253400002008BD08B5D0F8043843F00203C0F801
:1025440004380320FEF738F9002008BD4269806989
:1025540010407047D0F8183800F50060C069184082
:10256400000C7047D0F8183800F50060C0691840B6
:1025740080B2704700EB411100F50060D1F8082BE0
:1025840040691040704710B5D0F81048D0F834387E
:1025940000EB411001F00F01CB4000F51060DB01AE
:1025A4008068DBB22343184010BD406900F001008D
:1025B4007047D0F8003923F4FF6323F00703C0F811
:1025C400003900F500639A6802F00602042A02BF8B
:1025D400D0F8002942F00302C0F800295A6800200C
:1025E40042F480725A60704730B5056C104C00F5A7
:1025F4003063A54203D9D0F8004B002C16DB00242D
:102604001C611C69012944F400241C611C6944F008
:1026140018041C611C6944F0C0441C6101BF5A6168
:10262400D0F8003B43F08023C0F8003B002030BDCD
:102634000A30544F1B230380004870474800002091
:1026440000207047002070470A2303800048704729
:1026540064000020062908B507D8D0F8BC32044924
:10266400186800F0F6FD024808BD0020FCE700BF32
:102674006001002037B5D0F8B842054694F8183404
:10268400042B67D1D4F80024002A53D12378ABB9A2
:10269400D4F80434012B3ED100200323C4F80404ED
:1026A400C4F8000484F8183484F8110484F812047B
:1026B40084F8130484F8143403B030BD212B10D1F2
:1026C400D4F80434052B26D1E378A2781B0403EB59
:1026D400022362781344227903EB0263C4F80834BA
:1026E400DAE7412B17D1D4F80434052B13D1E07861
:1026F400A378000400EB032063781844237900EBEB
:102704000360D5F8BC32C4F80804DB689847002895
:10271400C2D00220D0E70023C4F80434C4F8003443
:102724008DF80030012369462846ADF8063000F0E4
:1027340085FDB1E7012AAFD9214BD4F8081413441D
:10274400D0F8BC2201EB832115692046D4F8042477
:10275400A847DCE7072B4FF0000311D1194A84F88E
:102764001934127D12F004020CD0062284F81134BC
:1027740084F8182484F8123484F8133484F8142464
:10278400184699E7082384F8112484F8183484F847
:10279400122484F8132484F8143400F017FAD5F8BA
:1027A400BC329B689847BFF34F8F0749074BCA68F1
:1027B40002F4E0621343CB60BFF34F8F00BFFDE729
:1027C400FEFF3F004800002000ED00E00400FA0591
:1027D40038B5022200240546D0F8B83283F818240C
:1027E40083F8142483F81044C3F80044C3F8044461
:1027F400D0F8BC329B689847D5F8B80201F03AF893
:10280400C5F8B842204638BD10B5044640F21C4015
:1028140001F028F8C4F8B80208B9022010BD00235A
:1028240002224FF00061C0F80C34C0F81034C0F834
:102834000034C0F80434D4F8BC32A0F81824A0F84A
:102844001424C0F808145B6898470028E6D0E4E72D
:102854000023F7B5ADF806300B78064613F0600395
:10286400D0F8B84200F04681202B40F056814B78D6
:10287400062B00F25281DFE813F017010700330042
:102884009A00E400FA00FE00CA8894F818349AB159
:10289400022B01D0052B74D14B883046C4F8003488
:1028A4000323C4F8042484F8183484F81434214627
:1028B40000F000FD002011E0052B01D0022B60D1B7
:1028C4004FF483730020A4F81834062384F8110409
:1028D40084F8120484F8130484F8143403B0F0BDAB
:1028E400CA88002A57D094F81834022B01D0092B37
:1028F4004BD14F88C4F80424C4F80074C7B9042A1F
:1029040034BF0923022384F8183484F814344FF4B0
:102914000453238041230322214684F8117484F84C
:10292400127484F81374A370304600F0AEFCC1E74F
:10293400012F4FF0000519D0092384F8115484F8AD
:10294400183484F8143484F8125484F81354854BDE
:10295400D6F8BC12D4F808043B4400EB83204F693A
:102964002146B847B4F804240146DDE70F2384F870
:10297400115484F8183484F8125484F8135484F8E5
:102984001434304600F05AFC94E70025C4F804548B
:10299400C4F80054F5E7022384F8112484F81834A9
:1029A40084F8122484F8132484F8143482E794F805
:1029B400183404F58265032B04D0062B28D0062294
:1029C4002946B1E7D4F80434E3B10023042284F89F
:1029D400113484F8182484F8123484F8133484F8F5
:1029E4001424D0F8BC32D4F800149B69D4F8080439
:1029F40029B92278412A02D12A469847DFE72A4694
:102A04000121FAE7052284F8182484F8113409E036
:102A140094F81934012B0CD1072284F811340023C3
:102A240084F8182484F8123484F8133484F81424B1
:102A3400C5E7002BC3D14C4A127D5207BFD50222F1
:102A4400E1E794F818340A2B08D10223002084F813
:102A54001834C4F81004A4F814343FE70A230E22EF
:102A640084F81834C4F81024A4F8143422E701229A
:102A740004F5836158E794F81834092B3FF61AAF2C
:102A84004FF41B70D840C04310F001007FF412AF24
:102A94000223C4F8100484F81834A4F81434C4F8D5
:102AA4000004C4F8040419E794F81824092A11D876
:102AB4004FF41B73D340DB4313F001030AD102220A
:102AC400C4F8103484F81824A4F81424C4F8003486
:102AD400C4F80434244B587D10F0100406D030465A
:102AE40000F074F8304600F06CF8E3E64888FDF72F
:102AF40063FEDFE64B780B2B0FD8DFE803F0060EFE
:102B04000E0E0E0E130E0E0E202890F89C32032B80
:102B140003D102220DF1060106E7304600F08EFBD8
:102B24000220DBE64B881B0A212B05D1CA880F49FA
:102B3400092A28BF0922F7E600221146F4E690F894
:102B44009C32032BE9D1012204F20C41ECE6887893
:102B54000028E2D196F89C32032BDED1C4F80C0491
:102B6400BCE600BFFEFF3F00480000205A000020E2
:102B740000207047002070470020704700207047F5
:102B840009B1C0F8BC120020704708B580B1D0F874
:102B9400B43213B10023C0F8B43209B1C0F8B01292
:102BA4000123027080F89C3200F080FD002008BDF3
:102BB4000220FCE719B1C0F8B412002070470220CB
:102BC400704708B500F0A0FD002008BD10B504460C
:102BD400D0F8B43201795B689847204600F0A2FD32
:102BE400002010BD08B5D0F8B4320BB9022008BDDE
:102BF4001B6898470028FAD0F8E708B5D0F8B43233
:102C04005B689847002008BD38B500F52A7504466E
:102C1400284600F0FFFA012394F8A812C4F894326D
:102C2400B4F8AE32C4F8983201F01F03012B0ED071
:102C340007D3022B10D001F08001204600F090FD54
:102C440003E02946204600F007F9002038BD294654
:102C5400204600F031FAF8E72946204600F051FA00
:102C6400F3E770B50546164649BBD0F89432032BFA
:102C74001ED1D0F86031D0F8642193420BD99B1A4D
:102C84009A42C0F860318CBF9AB292B2314600F0D9
:102C940020FB002070BDD0F8B4321B6923B190F83A
:102CA4009C22032A00D19847284600F01AFBF0E73B
:102CB400052BEED1C5F8941200F052FDE9E7D0F8E7
:102CC400B4329B692BB190F89C22032A01D1984716
:102CD400DFE70220DEE770B5134604460E460029FE
:102CE40047D1D0F89422022A3CD1D0E90852954227
:102CF40013D9AA1A0262194692B200F0D3FA3346E3
:102D04001A461946204600F075FD94F8A0320020BA
:102D1400012B01D184F8A00270BDC369B3FBF2F5A5
:102D240002FB153565B99A420AD8D0F89822934225
:102D340006D22A4600F0B6FAC4F898522B46DFE7CA
:102D4400D4F8B432DB682BB194F89C22032A01D165
:102D5400204698478021204600F002FD204600F0DE
:102D6400CBFAD2E732F00403CFD1802100F0F8FC93
:102D7400CBE7D0F8B4325B6933B190F89C22032AD4
:102D840002D198470020C7E70220C5E7002270B5AA
:102D94000446012540261146402300F0D1FC334669
:102DA4008021C4F85851C4F864610022204600F020
:102DB400C7FC0021D4F8B832A561666284F89C523D
:102DC400C4F894126160C4F8A41223B1D4F8B432E4
:102DD40020465B689847002070BD0174002070474E
:102DE40090F89C3280F89D32042380F89C320020B5
:102DF400704790F89C32042B04BF90F89D3280F801
:102E04009C320020704708B590F89C22032A04D114
:102E1400D0F8B432DB6903B19847002008BD002024
:102E240070470020704700207047012208B580F8E1
:102E34009C22D0F8B422017952689047002008BD42
:102E440010B50446802100F08BFC2046BDE81040FC
:102E5400002100F085BC000037B50B78044603F070
:102E64006003202B0D4612D0402B10D0002B5BD1D9
:102E74004B78092B58D8DFE813F0F4001001570001
:102E8400090157008D0013005700DC00A900D4F895
:102E9400B43229469B6820469847002003B030BDD1
:102EA40000234988ADF806300B0A013B062B3BD8BA
:102EB400DFE803F004202D3A3A5B6500D0F8B03225
:102EC4001B680DF10601207C9847BDF8062052B11D
:102ED400EB8843B19A4228BF1A4601462046ADF812
:102EE400062000F0D2F9EB88002BD6D1204600F062
:102EF400F8F9D2E7027CD0F8B43232B99B6A0DF10A
:102F04000600984702234370DFE7DB6AF7E7C9B29C
:102F1400052921D8DFE801F0030C1014181CD0F89F
:102F2400B0325B68002BCCD12046FFF789FFB4E7B1
:102F3400D0F8B0329B68F5E7D0F8B032DB68F1E73F
:102F4400D0F8B0321B69EDE7D0F8B0325B69E9E73D
:102F5400D0F8B0329B69E5E7D0F8B4329B6B002B14
:102F6400E2D00DF106029847AFE7037C002BDBD1DA
:102F7400D0F8B4320DF106005B6B9847A5E7037CEB
:102F8400002BD1D1D0F8B4320DF106001B6B984759
:102F94000723B8E78B88002BC6D1CB88002BC3D17D
:102FA4004D887F2DC0D890F89C32032BBCD0E9B259
:102FB40080F89E1200F002FC204600F092F91DB148
:102FC400022384F89C3268E70123FAE78978394DB3
:102FD40001292970A8D890F89C32022B08D0032B21
:102FE40015D0FFF72DFF29782046FFF706FE54E79A
:102FF40000293FF47BAF01210323416080F89C3218
:103004002046FFF7EFFD02287FF470AF8CE731B95B
:103014000223416080F89C32FFF7EFFD66E74168C8
:1030240001293FF463AFC9B2FFF7E7FD2978616076
:10303400E6E7CA88012A7FF477AF90F89C32002B28
:103044003FF472AF022B04D9032B7FF46DAF011D43
:1030540003E00146002341F8083F204600F015F93B
:103064001BE790F89C32013B022B3FF65DAFCB8807
:10307400022B7FF459AF0123C360D0F8A4320BB103
:103084000323C360022204F10C01E6E74B88012B01
:103094007FF403AFC4F8A43228E790F89C32013BD4
:1030A400022B3FF641AF4B88012B7FF4F6AE002391
:1030B400F0E700BF5F02002038B50B78044603F048
:1030C4006003202B0D4602D0402B00D0ABB994F8FE
:1030D4009C32013B022B10D82B79012B0DD8D4F84C
:1030E400B43229469B6820469847EB881BB910B92F
:1030F400204600F0F6F8002038BD2046FFF7A0FE79
:10310400F9E738B50A78044602F06002202A0B4633
:1031140014D0402A12D06AB95A788D88012AE9B2AB
:1031240020D036D3032A05D190F89C22022A27D036
:10313400032A0BD02046FFF783FE05E0D4F8B4221F
:103144001946926820469047002038BD5A882AB90B
:103154004A0603D0DB880BB900F002FB204600F0DE
:10316400C0F8F1E790F89C22022A09D0032AE1D1A1
:103174005B88002BE8D14D06F0D000F0FFFAEDE7B4
:103184004B06D7D000F0ECFA8021204600F0E8FA94
:10319400DAE790F89C32022B18D0032BCAD11423FF
:1031A40001F00F0215F0800F03FB02021FD0926999
:1031B400002ABFD001F07F0505FB0335054411F05B
:1031C4007F031FD12B60022229460CE04A06B1D1AD
:1031D4002B064FF000034FF002024CBF00F1140124
:1031E40000F5AA710B60204600F04FF8ACE7D2F866
:1031F4005821002A9ED001F07F0503FB050505F543
:10320400AA75DCE7204600F0C7FA08B10123D9E724
:103214002860D8E70B7803704B784370CA788B78B2
:1032240003EB022343804A790B7903EB0223838067
:10323400CA798B7903EB0223C380704710B5044627
:10324400802100F08DFA2046BDE81040002100F0F6
:1032540087BA30B588B105462B1A15F8014BDBB295
:10326400002CF9D101335B0013800B7003234B70E6
:103274000223013810F8015F05B930BD5A1CCD5442
:10328400D2B20233DBB28C54F4E71346022210B5F7
:10329400C0F89422C0E907330A46002100F09CFAE2
:1032A400002010BD08B513460A46002100F094FA28
:1032B400002008BD1346032210B5C0F89422C0F8BC
:1032C4005C310A46C0F86031002100F093FA002016
:1032D40010BD08B513460A46002100F08BFA002001
:1032E40008BD08B50423C0F8943200231A461946D1
:1032F40000F072FA002008BD08B50523C0F8943226
:1033040000231A46194600F075FA002008BD000093
:1033140008B500220E490F48FFF737FC08B1FDF746
:1033240053F90D490B48FFF745FC08B1FDF74CF97B
:103334000A490848FFF724FC08B1FDF745F9054898
:10334400FFF73FFC18B1BDE80840FDF73DB908BDE3
:10335400700000208C0200200C000020C00000201F
:10336400122301480B8070478C000020042301487D
:103374000B807047A0000020002370B51E46050F87
:10338400ECB2092D94BF3034373401F8134001EB0B
:10339400430401336670DCB2A2424FEA0010EED857
:1033A40070BD00001A2310B50B80094B1868083350
:1033B4001B68C0180AD0074B08221C680649FFF78F
:1033C400DBFF042205492046FFF7D6FF044810BD61
:1033D400107AFF1F147AFF1FA6000020B6000020F9
:1033E400A400002010B5044C0A4604482146FFF707
:1033F40030FF204610BD00BF50050020493A0008A8
:1034040010B5044C0A4604482146FFF722FF204623
:1034140010BD00BF500500205C3A000810B5044CF4
:103424000A4604482146FFF714FF204610BD00BF9A
:1034340050050020303A000810B5044C0A460448F0
:103444002146FFF706FF204610BD00BF50050020AF
:103454003B3A0008034610B5481E1A44934201D172
:10346400084610BD13F8014B00F8014FF6E70020A1
:10347400704700002DE9F041064617460D4602202C
:103484000024DFF83080BC4201D3BDE8F08145451B
:103494000AD93259002329460220FDF7C5FA30B96A
:1034A40032592B689A4202D104340435EBE70220E6
:1034B400EBE700BFFF7F0008002310B5254A86B064
:1034C4009042009331D9019301230293224B9842F5
:1034D4002ED903F5804398422CD903F580339842C2
:1034E4002AD903F50033984228D903F500339842CA
:1034F40026D903F50033984224D903F500339842C2
:1035040022D903F50033984220D903F500339842B9
:1035140094BF0A200B20012302240390694601A8CA
:10352400CDE90434FDF72EFB90B9002006B010BDA0
:103534000220F0E70320EEE70420ECE70520EAE7A9
:103544000620E8E70720E6E70820E4E70920E2E7A9
:103554002046EBE7FF7F0008FEBF000808B5FDF733
:103564002FFA0028FBD108BD08B5FDF717FA00288B
:10357400FBD108BD30B5044689B01422002103A84C
:1035840000F080F92368B3F1A04F2ED10025184C28
:103594000195236B4FF4C05243F001032363236B63
:1035A400032103F001030193019B0223CDE90323CB
:1035B4000A231048CDE9061303A9FDF731FB636B19
:1035C400432043F0800363630295636C2A4643F40B
:1035D40080436364636C294603F480430293029B33
:1035E400FDF710F94320FDF741F909B030BD00BFE4
:1035F400003802400000024000F57171D0F8FC036D
:10360400FFF702BB1C2303FB0103D0F8FC03D3F830
:103614000822FFF726BB1C2303FB0103D0F8FC039D
:103624009A6CFFF758BBD0F8FC03FFF7ECBBC168FA
:1036340010B5044621B1022901D0FCF7C5FF0121D0
:10364400D4F8FC03FFF7C9FBD4F8FC03BDE8104031
:10365400FFF79CBB10B50446D0F8FC03FFF7C0FB92
:103664002268D2F8003E43F00103C2F8003E236A08
:1036740023B1034A136943F00603136110BD00BF6D
:1036840000ED00E0D0F8FC03FFF7B3BBD0F8FC0377
:10369400FFF7C7BBD0F8FC03FFF7C1BBD0F8FC03AE
:1036A400FFF7C1BBD0F8FC03FFF7BFBB08B5027836
:1036B4002ABB144B0421C3F8FC03C0F8C0324FF0FA
:1036C400A040C3E9000102211846C3E90312C3E97B
:1036D40006121A62C3E90B22FDF78CFB08B1FCF752
:1036E40073FF80210748FEF70EF8402200210548A9
:1036F400FDF7E9FF802201210248FDF7E4FF0020E5
:1037040008BD00BF5007002008B5D0F8C002FDF77F
:10371400F8FB032896BF024B0220185C08BD00BFCB
:10372400BA3A000808B5D0F8C002FDF7FFFB032839
:1037340096BF024B0220185C08BD00BFBA3A0008CD
:1037440010B51C46D0F8C00213462246FDF7DCFE35
:10375400032896BF014B0220185C10BDBA3A00083A
:1037640008B5D0F8C002FDF745FF032896BF024B09
:103774000220185C08BD00BFBA3A000808B5D0F8AA
:10378400C002FDF76FFF032896BF024B0220185CAE
:1037940008BD00BFBA3A00081C2211F0800FD0F80F
:1037A400C0321BBF01F07F0102FB013102FB01317A
:1037B40091F83E0008BF91F8FE01704708B5D0F8B3
:1037C400C002FDF78DFE032896BF024B0220185C51
:1037D40008BD00BFBA3A000808B5D0F8C002FDF72A
:1037E400E9FE032896BF024B0220185C08BD00BF07
:1037F400BA3A000808B5D0F8C002FDF7B8FE0328AD
:1038040096BF024B0220185C08BD00BFBA3A0008FC
:10381400014B1868704700BFDC00002070B500251C
:103824000C4E0D4CA41BA410A54209D100F0EAF8DB
:1038340000250A4E0A4CA41BA410A54205D170BD54
:1038440056F8253098470135EEE756F82530984765
:103854000135F2E7C83A0008C83A0008C83A000837
:10386400CC3A0008024B0146186800F05FB800BF6C
:10387400DC000020024B0146186800F00BB800BFC2
:10388400DC00002003460244934200D1704703F851
:10389400011BF9E738B50546002943D051F8043C2B
:1038A4000C1F002BB8BFE41800F0AAF81E4A1368D6
:1038B400104633B9636014602846BDE8384000F010
:1038C400A0B8A3420BD921686218934201BF1A68B9
:1038D4005B685218226063600460EDE713465A681F
:1038E4000AB1A242FAD919685818A0420BD120682B
:1038F4000144581882421960DED1106852680144AC
:1039040019605A60D8E702D90C232B60D4E72068E9
:1039140021188A4201BF1168526809182160626047
:103924005C60C9E738BD00BF6002002070B5CD1CE3
:1039340025F0030508350C2D38BF0C25002D06464F
:1039440001DBA94203D90C233360002070BD00F0D1
:1039540057F8214A1468214691B9204C23681BB9B1
:10396400304600F03DF820602946304600F038F833
:10397400431C24D10C233046336000F042F8E4E7C2
:103984000B685B1B18D40B2B0FD90B60CC18CD50D4
:10399400304600F036F804F10B00231D20F0070038
:1039A400C31AD3D05A42E250D0E74B688C4216BFB8
:1039B400636013600C46EBE70C464968CCE7C41C13
:1039C40024F00304A04205D0211A304600F008F880
:1039D4000130CFD02560DBE76002002064020020C4
:1039E40038B50023054C054608462360FCF71AFE4B
:1039F400431C02D1236803B12B6038BD500B002057
:103A040070477047F8B500BFF8BC08BC9E467047C5
:0C3A1400F8B500BFF8BC08BC9E46704727
:103A2000000000000000000001020304060708096E
:103A300044465520436F6E666967004446552049E9
:103A40006E746572666163650053544D6963726F8D
:103A5000656C656374726F6E6963730053544D33A4
:103A60003220446F776E4C6F6164204669726D77C7
:103A7000617265205570646174650040496E7465BB
:103A8000726E616C20466C6173682F30783038300C
:103A900030303030302F30322A3031364B612C30DC
:103AA000322A3031364B672C30312A3036344B676E
:103AB0002C30372A3132384B6700000201020000F7
:083AC00034C7FF7F0100000084
:043AC800A901000848
:043ACC008501000868
:103AD0000024F40001000000100000000D28000880
:103AE000D52700085528000879260008492600082F
:103AF00045260008792B0008812B00087D2B000843
:103B0000752B0008392600083926000839260008D8
:103B10004D2600085926000809021B00010102C0B9
:103B2000320904000000FE01020609210BFF00001B
:103B3000041A01000A060002000000400100000013
:103B40006533000871330008E933000805340008C4
:103B5000A9330008213400083D3400081201000296
:103B600000000040830411DF000201020301000095
:103B7000040309041A030000000000000000000014
:103B80000000000000000000000000000000000035
:103B90007B3A00086D35000861350008BD34000827
:103BA000793400085934000873340008E00000201C
:103BB0000000000000000000000000000000000005
:103BC00000000000000000000000000000000000F5
:103BD00000000000000000000000000000000000E5
:103BE00000000000000000000000000000000000D5
:103BF00000000000000000000000000000000000C5
:103C000000000000000000000000000000000000B4
:040000050800069D4C
:00000001FF
